:020000040800F2
:10000000504700209D0100086B2900087925000851
:100010006929000871080008853000080000000008
:100020000000000000000000000000001B2A000883
:100030005509000800000000192A00081D2A0008C0
:10004000B7010008B7010008B7010008B7010008B0
:10005000B7010008B7010008B7010008B7010008A0
:10006000B7010008B7010008B7010008B701000890
:10007000B701000875080008B701000881080008EA
:10008000B7010008B7010008B7010008B701000870
:10009000B7010008B7010008B7010008B701000860
:1000A000B7010008B7010008B7010008B701000850
:1000B000B7010008B7010008C92A0008B701000805
:1000C000B7010008B7010008B7010008B701000830
:1000D000B7010008B7010008B7010008B701000820
:1000E000B7010008B7010008B7010008B701000810
:1000F000B7010008B7010008B7010008B701000800
:10010000B7010008B7010008B7010008B7010008EF
:100110008D2C0008B7010008B7010008B7010008DE
:100120008D08000899080008B7010008B701000809
:10013000B701000859090008B7010008B701000815
:10014000B7010008B7010008B7010008B7010008AF
:10015000B7010008A5080008B701000879300008B9
:10016000B7010008B7010008B7010008B70100088F
:10017000B7010008B7010008B7010008000000003F
:10018000B7010008B7010008DFF80CD000F0CAFA88
:1001900000480047953A000850470020064880472D
:1001A00006480047FEE7FEE7FEE7FEE7FEE7FEE75C
:1001B000FEE7FEE7FEE7FEE7B92A0008890100082E
:1001C0002DE9F05F0546002092469B46884606468C
:1001D000814640241BE0284641464746224600F01F
:1001E0007FF953465A46C01A914110D3114618461A
:1001F000224600F066F92D1A67EB01084F462246A9
:100200000120002100F05DF917EB00094E41201E8E
:10021000A4F10104DFDC484631462A464346BDE8E6
:10022000F09F40EA01039B0703D009E008C9121FB1
:1002300008C0042AFAD203E011F8013B00F8013BA0
:10024000521EF9D27047D2B201E000F8012B491ECC
:10025000FBD270470022F6E710B513460A46044663
:100260001946FFF7F0FF204610BD2DE9FE4F8046EE
:1002700081EA0300C00F0C46009021F0004123F0FA
:100280000045B8EB0200A94105D240462146904600
:100290001C460B46024623F00040104347D0270D72
:1002A000C7F30A00C3F30A510290401A0190402894
:1002B0006BDAC3F3130040F4801B0098924620B120
:1002C0000023D2EB030A63EB0B0B01985946C0F1F4
:1002D0004002504600F0F5F806460D465046594695
:1002E000019A00F00DF910EB08006141002487EA43
:1002F000115284EAE7731A4340D0009A62B3019A1C
:10030000012A4FEA075215DC001B61EB02014FF096
:10031000004202EA0752CDE90042001C41F580117B
:1003200032462B4600F00DF903B0BDE8F08F404691
:100330002146F9E7001B61EB0201001C41F5801327
:1003400000185B412018A2F5001747EB030140EAB3
:10035000D570B6196D4111E06D084FEA360645EAD1
:10036000C0754FEA0752001B61EB0201001C41F50A
:10037000801149084FEA30000019514132462B469E
:1003800003B0BDE8F04F00F0CDB800980122400066
:100390000023D0EB020263EBE073009821464FEAA2
:1003A000E074B8EB000061EB0401E9E783F000437F
:1003B0005BE781F0004158E72DE9F04D81EA030445
:1003C00004F0004B21F0004514464FF0000A23F0E2
:1003D000004150EA050220D054EA01021DD0C5F3C5
:1003E0000A570246C5F31303C1F31300C1F30A56BB
:1003F00040F4801543F48013A7EB0608101BD64683
:1004000008F2FD3873EB050002D308F1010801E0A2
:1004100092185B41B8F1000F03DA00200146BDE8F5
:10042000F08D00204FF48011064684460EE0171B25
:1004300073EB050705D3121B63EB050306434CEA78
:10044000010C49084FEA300092185B4150EA01075D
:10045000EDD152EA030012D082EA040083EA0501DA
:10046000084305D0101BAB4106D20122002306E051
:1004700000224FF0004302E06FF0010253101AEB2C
:1004800006004CEB085110EB0A0041EB0B01BDE8F4
:10049000F04D00F047B830B50B4601460020202251
:1004A000012409E021FA02F59D4205D303FA02F581
:1004B000491B04FA02F52844151EA2F10102F1DCE1
:1004C00030BD202A04DB203A00FA02F100207047F8
:1004D0009140C2F1200320FA03F319439040704782
:1004E000202A04DB203A21FA02F00021704721FA89
:1004F00002F3D040C2F120029140084319467047F0
:10050000202A06DBCB17203A41FA02F043EAE073D7
:1005100006E041FA02F3D040C2F1200291400843C4
:100520001946704710B5141E73F1000408DA401C18
:1005300041F1000192185B411A4301D120F0010002
:1005400010BD2DE9F04D92469B4611B1B1FA81F2F2
:1005500002E0B0FA80F220329046FFF7B2FF044684
:100560000F4640EA0A0041EA0B0153465A46084347
:1005700013D0114653EA010019D0C8F14002504689
:10058000FFF7AEFF05460E46504659464246FFF776
:1005900098FF084305D0012004E020463946BDE815
:1005A000F08D0020054346EAE0762C4337430A9855
:1005B0006305E40AA0EB08000022FD0A44EA475460
:1005C0000A3002D500200146E9E70105101969410A
:1005D000DDE9084500196941BDE8F04DA2E72DE9C4
:1005E000FE4F81EA030404F0004421F0004100942E
:1005F0004FF0000B23F0004350EA01045ED052EAB2
:1006000003045BD0C3F30A54C1F30A552C44A4F28B
:10061000F3340194A0FB0254C1F3130141F480119F
:10062000C3F3130343F4801301FB024400FB034EA6
:10063000840A970A44EA815447EA8357A4FB07686F
:1006400002958D0A05FB07854FEA932C04FB0C5499
:100650002705029D4FEA065847EA1637B5EB08050D
:100660006EEB070C870E920E47EA811742EA83125F
:10067000A7FB0201B6EB0B0164EB00042B0D43EA70
:100680000C335E1844EB1C50DA465146E7FB02017E
:10069000C5F313044FEA0B3343EA14534FEA043211
:1006A000019C43EA0603A4F10C040294009CCDE9EA
:1006B00000B4FFF746FF03B0BDE8F08F002001460D
:1006C000F9E7C1F30A52C1F3130140F2FF3341F4D9
:1006D00080119A4202DA00200146704740F233430B
:1006E0009A42A2F2334202DC5242FFF7F9BEFFF710
:1006F000E8BE000030B5041E71F1000404DB4FF0C9
:100700000044404264EB0101141E73F1000405DB58
:100710001C464FF00043524263EB0403994208BF6A
:10072000904230BD064C074D06E0E06840F0010302
:1007300094E8070098471034AC42F6D3FFF728FD41
:10074000FC3A00081C3B0008464910B54A6822F4F0
:1007500040324A604A6843681A434A6001684A68FE
:1007600022F480724A6001684A68036942EA0322FF
:100770004A6001684A6822F040724A6001684A682B
:1007800083681A434A6001688A6822F400628A60BA
:1007900001688A68C3681A438A60816A6FF0706270
:1007A000D14201688A6822F070628A6001688A68B2
:1007B0000CD0836A1A438A6001688A6822F040522A
:1007C0008A6001688A68C36A1A4301E022F04052D5
:1007D0008A6001688A6822F002028A6001688A6879
:1007E000037E42EA43028A6090F8201000290168E3
:1007F0004A680FD042F400624A6001684A6822F4F5
:1008000060424A6001684A68174C436A04EB43330C
:100810001A4301E022F400624A600168CA6A22F4C5
:100820007002CA620168CA6A838B104C04EB0353DE
:100830001A43CA6201688A6822F400728A600168F9
:100840008A6890F8303042EA43228A6001688A68F8
:1008500022F480628A6001688A68406942EA8020E6
:10086000886010BD0023014000E0FFFF0000F0FFA2
:10087000FEE70000014800F01BBA000074020020EF
:10088000014800F015BA0000D4020020014800F031
:100890000FBA000060000020014800F009BA000013
:1008A00034030020014800F003BA00009403002044
:1008B00001681823CAB2103AB2FBF3F2054B6FF38A
:1008C0000901032A9B5CC36500D9091D816508469F
:1008D00070470000DC3A000810B5014600208B6923
:1008E0008A6A4FF0C07453B1B3F5005F15D072B18E
:1008F000012A0CD0022A0AD0032A09D104E01AB135
:10090000012A06D0022A03D1C96AC90100D50120F3
:1009100010BDC96AA142FAD010BD002AF7D0012A41
:10092000F2D0022AF3D0032AF3D010BD30B5046808
:10093000256825F480252560046863608368402B62
:10094000036803D099600068C26030BD9A60006897
:10095000C16030BD70470000014800F01BBB0000C3
:100960000035002072B6FEE70048704738040020CA
:1009700010B5044601F002FE2046BDE8104000F02C
:1009800005B810B501F0F4FF002010BD0021017082
:1009900041708170C1700171817201734173417145
:1009A0008171C17101724172C1738173C17201742D
:1009B0004174816141614162C1610162704700001F
:1009C00078B50024009490F83C20012A19D0012227
:1009D00080F83C200A6807230568092A13D9EE68C5
:1009E0000A3A02EB420293409E43EE600B788A681B
:1009F0000A3B03EB43039A400368DD682A43DA604D
:100A000010E0022078BD2E6902EB420293409E4323
:100A10002E610B788A6803EB43039A4003681D69D3
:100A20002A431A614A681F23072A13D205686E6B8E
:100A3000521E02EB820293409E436E630B790A883A
:100A40005B1E92B203EB83039A4003685D6B2A43FB
:100A50005A6327E005680D2A12D22E6BD21F02EBD3
:100A6000820293409E432E630B790A88DB1F92B269
:100A700003EB83039A4003681D6B2A431A6311E05A
:100A8000EE6A0D3A02EB820293409E43EE620B79CE
:100A90000A880D3B92B203EB83039A400368DD6A38
:100AA0002A43DA62164B0568144A9D4206D10D6846
:100AB000122D03D1556845F48005556005689D42A7
:100AC00018D10B68102B01D0112B13D1536843F4AC
:100AD00000035360096810290CD10A490A4A0968C1
:100AE000B1FBF2F101EB8101490000E0491E0091E8
:100AF0000029FBD180F83C40002078BD0023014054
:100B0000002001401000002040420F0070B504009A
:100B10004FF0000503D0206C002610B107E0012043
:100B200070BD204600F01CF8666484F83C60206CC0
:100B3000C00610D4206C20F4885040F002002064DD
:100B40002046FFF701FE6664206C20F0020040F0B2
:100B50000100206400E0012584F83C60284670BD57
:100B600070B586B0054614216846FFF773FB1E4931
:100B70002868884236D11D480026016841F480610A
:100B80000160006800F4806005901848143801681E
:100B900041F0200101600068694600F020000590E6
:100BA000402000900320CDE90106114800F03CFAF6
:100BB000114C104820608005C4E901060014C4E906
:100BC0000360800060618000A0618011E0614002EC
:100BD000C4E90806204600F03BF908B1FFF7C2FE61
:100BE000AC63A56306B070BD0022014044380240EA
:100BF0000014024010640240600000202DE9F04122
:100C00000446876D00F00CFB064694F8350000257D
:100C1000022806D08020606584F834500120BDE8A9
:100C2000F0812068016821F01601016020684169A7
:100C300021F080014161206C08B9A06C20B12068CE
:100C4000016821F0080101602068016821F00101BC
:100C500001600BE000F0E4FA801B052806D9202093
:100C6000606504F8345F03206070D8E7206800688E
:100C7000C007EFD194F85C103F208840B86004F8BA
:100C8000345F012060700020C9E790F83510022918
:100C900003D08021416501207047052180F835107F
:100CA0000068016821F00101016000207047000028
:100CB0002DE9F84304464FF00009CDF80090634851
:100CC0004FF41651A56D0068B0FBF1F72E6894F84B
:100CD0005C10082000FA01F131420FD021680A6847
:100CE00052070BD50A6822F004020A6094F85C10DF
:100CF0008840A860606D40F00100606594F85C1069
:100D00004FF0010808FA01F0304208D02168496923
:100D1000090604D5A860606D40F00200606594F893
:100D20005C1004208840304208D021680968890797
:100D300004D5A860606D40F00400606594F85C1014
:100D400010208840304218D021680968090714D55E
:100D5000A86020680168490304D50068000308D52D
:100D6000A16C07E00168C90503D4016821F00801FE
:100D70000160216C09B12046884794F85C1020205E
:100D80008840304231D021680968C9062DD5A86055
:100D900094F8350005282068016806D0490347D536
:100DA000006800031DD4616C1CE021F01601016095
:100DB0002068416921F080014161206C08B9A06C74
:100DC00020B12068016821F00801016094F85C10EE
:100DD0003F208840A86084F8349084F83580216DE5
:100DE0001FE0E16B09B120468847606D00282BD0D9
:100DF000606DC00714D0052084F8350020680168B4
:100E000021F0010101600098401C0090B84203D815
:100E100020680068C007F6D184F8349084F83580E3
:100E2000E16C002910D001B02046BDE8F04308472E
:100E30000168C905D5D4016821F01001016084F86A
:100E4000349084F83580CCE7BDE8F88310000020AA
:100E50002DE9F041044600F0E3F906465CB10025B7
:100E600084F83450022084F835002068016821F0AD
:100E7000010101600DE00120BDE8F08100F0D0F932
:100E8000801B052805D920206065032084F83500E3
:100E9000F2E720680068C007F0D122681168204896
:100EA0000140D4E901031843D4E90336334318431E
:100EB00063691843A3691843E3691843236A184315
:100EC0000843616A042903D1D4E90B131943084389
:100ED000106020684069666A20F0070130460E43C2
:100EE000012704280CD1A06A0643E06A40B12046DD
:100EF000FFF7F2FC20B14020606584F83570BAE756
:100F0000206846612046FFF7D3FC94F85C203F211F
:100F100091408160656584F835700020ACE7000081
:100F20003F8010F02DE9F0410446866D90F83400C2
:100F3000002501280DD0012084F8340094F8357084
:100F40000020012F07D084F8340002252846BDE890
:100F5000F0810220FBE7022784F8357060652046A7
:100F6000FFF7E4FC94F85C103F208840B0602068F4
:100F7000016841F016010160206C20B12068016811
:100F800041F0080101602068016841F00101016041
:100F9000DCE7704770B50446006800F58050416991
:100FA0004FF0000549064FF0010608D5204600F035
:100FB0002FF82068402100F58050416109E0406928
:100FC000C0070AD0204600F02DF8206800F58050B8
:100FD000466184F8446084F8455020684FF48031BD
:100FE00000F580504161206800F5805040690004A0
:100FF0000CD52046FFF7CDFF20684FF4004100F5E7
:101000008050416184F8446084F8455070BD000010
:1010100001A002F039B800007278206973720D0ADD
:1010200000000000704700002DE9F84FDFF8B8A17C
:10103000002201250AF1040B03264FF00F090BF1E2
:10104000040E00BF0B6805FA02F42340A3426FD1DF
:101050000F7907F00307012F01D0022F16D18768FF
:101060004FEA420806FA08FC27EA0C07D1F80CC040
:101070000CFA08FC4CEA070CC0F808C04768A74304
:101080000C79C4F3001494403C4344600C79E4436D
:10109000A4070AD0C4684FEA420C06FA0CF7BC4316
:1010A0008F6807FA0CF72743C7600C7904F0030434
:1010B000022C12D1D40800EB840CDCF82040570736
:1010C000FF0E09FA07F824EA0804D1F8108008FA9C
:1010D00007F848EA0408CCF8208004684FEA420C7C
:1010E00006FA0CF7BC430F7907F0030707FA0CF771
:1010F000274307604C68E40070D53C4C276847F4F0
:1011000080472760246822F0030704F48044009499
:10111000374C07EB040CDCF8084897074FEA1778C0
:1011200009FA08F7BC43334FB84202D1002724E044
:1011300054E0314FB84201D101271EE02F4FB84291
:1011400001D1022719E02E4FB84201D1032714E044
:101150002C4FB84201D104270FE02B4FB84201D1E8
:1011600005270AE0294FB84201D1062705E0284F9C
:10117000B84201D1072700E0082707FA08F72743FC
:10118000CCF80878DAF800405746D1F804C09C4300
:101190005FEACC3C00D51C433C60DBF800405F4676
:1011A000D1F804C09C435FEA8C3C00D51C433C60F2
:1011B000DEF800407746D1F804C09C435FEACC2CAF
:1011C00000D51C433C60084F0C373C68D1F804C084
:1011D0009C435FEA8C2C00D51C433C60521C102AB7
:1011E000FFF430AFBDE8F88F003C014044380240C6
:1011F00000300140000002400004024000080240AC
:10120000000C02400010024000140240001802408E
:10121000001C02400AB1816170470904FBE700002D
:1012200001488068704700000400002070B5040089
:1012300025D094F83D00002520B984F83C50204684
:1012400000F0B8F8242084F83D002068016821F0FF
:10125000010101602068016841F4004101602068DB
:10126000016821F40041016000F014FA4D4A616800
:10127000914201D84C4900E04C49884201D20120FA
:1012800070BD4B492368B0FBF1F15E6826F03F0664
:101290000E435E606368934206D94FF496735943D8
:1012A0004FF47A73B1FBF3F12368491C1E6A26F0F0
:1012B0003F06314319626168914210D84900401ECF
:1012C000B0FBF1F2521CC2F30B02042A01D204203B
:1012D00022E0B0FBF1F0401CC0F30B001CE0A26860
:1012E000F2B301EBC10303EB0116431EB3FBF6F3AC
:1012F0005B1C43F480431B0549D092B301EBC10250
:1013000002EB0111401EB0FBF1F0401CC0F30B00DA
:1013100040F4804040F400402168CA694CF6FF73F5
:101320009A431043C861D4E907100143206802685A
:1013300022F0C00211430160D4E903010143206897
:10134000826848F2FF339A4311438160D4E9050172
:1013500008432168CA6822F0FF021043C86001E018
:101360000EE016E02068016841F00101016025648B
:10137000202084F83D00256384F83E50002070BD95
:1013800001EB4106431EB3FBF6F35B1CB3E7012000
:10139000C2E701EB4101401EB0FBF1F0401CC0F37D
:1013A0000B00B7E7A086010080841E0000093D0005
:1013B00040420F0010B586B0044614216846FEF77F
:1013C00049FF1349206888421FD112480021026852
:1013D00042F0200202600068122200F02000059016
:1013E0000320CDE90210CDE90002042004906946F3
:1013F0000948FFF719FE07481030016841F48001E1
:101400000160006800F48000059006B010BD000087
:101410000058004030380240001402400248816801
:101420000278114481607047040000200B4810B519
:10143000016841F400710160016841F4806101605C
:10144000016841F480710160032000F06FF80F2003
:1014500000F006F800F024F8002010BD003C024027
:1014600070B50D4D04464FF47A712878B1FBF0F059
:101470000A490968B1FBF0F000F020FB48B9102CD4
:1014800007D200222146501E00F030F800206C6088
:1014900070BD012070BD000004000020100000207D
:1014A0000A4808B5016841F480410160006800F411
:1014B000804000900548001F016841F080510160A4
:1014C000006800F08050009008BD000044380240E1
:1014D000002809DB00F01F02012191404009800033
:1014E00000F1E020C0F8001170470000F0B40E4B8E
:1014F0001B680C46C3F30223C3F10705042D00D972
:101500000425191D072901D2002300E0DB1E012656
:1015100006FA05F1491E214099409E40761E16406C
:101520003143F0BC01F0C0BD0CED00E0064900F015
:10153000070208684FF6FF03184040EA0220034AFA
:1015400010430860704700000CED00E00000FA0551
:10155000704700002DE9F0470E46050065D0DFF822
:101560001481D8F80000F7B200F00700B04207D2AB
:1015700088F80070D8F8000000F00700B04254D19D
:1015800028683D4C810712D5400703D5206840F4F8
:10159000E05020602878000703D5206840F46040C0
:1015A00020602068A96820F0F000084320602878B7
:1015B000C0072DD0304968680839012812D00228A8
:1015C00013D0032811D00968890700292DDA216872
:1015D00021F0030101432160FFF722FE814641F221
:1015E000883A0EE009688903EFE709688901ECE7AA
:1015F000FFF716FEA0EB0901514502D90320BDE813
:10160000F0872068696800F00C00B0EB810FEFD123
:10161000D8F80010404601F00701B14207D9077021
:10162000006800F00700B04201D00120E7E7287809
:10163000400705D52068E96820F4E05008432060A1
:101640002878000706D52068296920F4604040EA20
:10165000C100206000F03EF82168084AC1F3031180
:10166000515CC8400649086006480068FFF7F8FE6C
:101670000020C4E7003C024008380240E43A000879
:10168000100000200800002001490120C8647047B4
:10169000000047420448054900680968044AC1F34C
:1016A0008221515CC8407047100000200838024079
:1016B000F43A00080448054900680968044AC1F37F
:1016C0004231515CC8407047100000200838024089
:1016D000F43A0008154810B5006810F00C021448E0
:1016E00013D04110042A0FD0082A0ED10F4C241F0A
:1016F0002268236802F03F025B0207D52068C0F32E
:101700008810A0FB010106E0084610BD2168C1F366
:101710008811A1FB00010023FEF752FD2168C1F3EF
:101720000141491C4900B0FBF1F010BD08380240EE
:101730000024F400054810B50068000605D5FFF741
:1017400007FF02498020891C087010BD0C38024038
:101750002DE9F84F04006ED02078DFF84C93C007D5
:10176000A9F104054AD009F104000168C1F381011F
:10177000012908D00068C0F3810002280AD1D9F8F5
:101780000000400206D52868800337D5606800282D
:10179000E1D033E06068B0F5803F10D0B0F5A02F05
:1017A000286810D020F480302860286820F4802039
:1017B00028606068A8B1FFF733FD06460DE0286891
:1017C00040F48030F4E740F480202860F7E700BF61
:1017D000FFF726FD801B642873D828688003F7D59F
:1017E0000CE0FFF71DFD064605E000BFFFF718FD02
:1017F000801B6428F0D828688003F7D42078DFF8AD
:10180000AC8280074FF0000A3ED5A748001D016852
:1018100011F00C0F08D00068C0F3810002280BD132
:10182000D9F80000400207D42868800716D5E06880
:10183000012800D112E033E1E068B8B10120C8F816
:101840000000FFF7EDFC064605E000BFFFF7E8FCEF
:10185000801B0228C0D828688007F7D5286821692E
:1018600020F0F80040EAC10028600DE0C8F800A0B0
:10187000FFF7D6FC064604E0FFF7D2FC801B0228E7
:101880001FD828688007F7D42078000722D5864F14
:1018900087486169703771B101210160FFF7C0FCB1
:1018A000064604E0FFF7BCFC801B022809D8386814
:1018B0008007F7D50EE0C0F800A0FFF7B1FC0646A0
:1018C00005E082E0FFF7ACFC801B02287DD8386879
:1018D0008007F7D42078400768D5DFF8CCB100271F
:1018E0000BF13C0BDBF80000C0000BD4DBF8001060
:1018F00041F08051CBF80010DBF80000012700F028
:10190000805000906B4E3068C00510D4306840F4B1
:1019100080703060FFF784FC009005E0FFF780FCEA
:101920000099401A022850D83068C005F6D55E4E9E
:10193000A0686C3601280FD00528306810D020F040
:1019400001003060306820F004003060A068B8B159
:10195000FFF766FC00900FE0306840F00100F4E70C
:1019600040F004003060F7E7FFF75AFC0099411A95
:1019700041F28830814266D830688007F4D50EE0A5
:10198000FFF74EFC009007E0FFF74AFC0099411A70
:1019900041F28830814256D830688007F4D42FB1A4
:1019A000DBF8001021F08051CBF80010A069C8B31B
:1019B0003D49091D0968C1F3810102294AD0022865
:1019C000504607D0C8F8600000E03CE0FFF728FC74
:1019D00004463BE04746C8F86000FFF721FC064696
:1019E00005E000BFFFF71CFC801B02282BD82868ED
:1019F0008001F7D4D4E907010843A16A2E4A4908B7
:101A000002EB0141626A41EA8211084394F82C100A
:101A100040EA0161C9F8001001203866FFF700FCB8
:101A2000044606E03EE000BFFFF7FAFB001B022879
:101A300009D828688001F7D534E000BFFFF7F0FB34
:101A4000001B022802D90320BDE8F88F2868800116
:101A5000F4D427E00128F7D0D9F80000E26900F4B7
:101A6000800191421CD1226A00F03F01914217D1BE
:101A700047F6C071626A0140B1EB821F10D1A26AC1
:101A80004FF0FF3300F4403103EB5202B1EB024F51
:101A900006D194F82C1000F07060B0EB016F01D00B
:101AA0000120D1E70020CFE7043802400000474280
:101AB000800E4742007000400000FFFF10B5401E3E
:101AC000B0F1807F01D3012010BD4FF0E0246061B0
:101AD0000F21601701F0E8FA0020A06107202061C3
:101AE000002010BD7047704770B590F83C20012A67
:101AF00032D0012480F83C40022280F83D20036867
:101B00005A689D6822F070060A6832435A60134B87
:101B100002689A4214D0B2F1804F11D0104B9A4211
:101B20000ED0104B9A420BD00F4B9A4208D00F4B5D
:101B30009A4205D00E4B9A4202D00E4B9A4204D1E3
:101B4000496825F080031943916080F83D400021E9
:101B500080F83C10084670BD022070BD00000140B6
:101B60000004004000080040000C00400004014058
:101B7000004001400018004010B5040003D094F864
:101B80003D0010B107E0012010BD002084F83C00AA
:101B9000204600F01FF8022084F83D00211D206837
:101BA00000F098FF012084F8460084F83E0084F895
:101BB0003F0084F8400084F8410084F8420084F833
:101BC000430084F8440084F8450084F83D00002078
:101BD00010BD000008B501681648B1F1804F0BD068
:101BE000154A914210D1016841F00201016000687C
:101BF00000F00200009008BD016841F001010160A1
:101C0000006800F00100F5E70C4A9142F3D1016849
:101C100041F0040101600068002200F0040000901F
:101C200011461E20FFF762FCBDE808401E20FFF7AA
:101C30004FBC000040380240000400400008004053
:101C400090F83D10012901D001207047022180F851
:101C50003D100168CA6842F00102CA60006811497B
:101C6000884214D0B0F1804F11D00F4988420ED075
:101C70000E4988420BD00E49884208D00D4988424F
:101C800005D00D49884202D00C49884204D18168B0
:101C900001F00701062903D0016841F0010101604C
:101CA0000020704700000140000400400008004090
:101CB000000C0040000401400040014000180040BA
:101CC00070B5044690F83C00012817D0012584F82F
:101CD0003C50022084F83D002068826822F07702A0
:101CE00022F47F4282600868502830D00DDC202822
:101CF0004DD005DC98B310283BD148E0022070BDE0
:101D0000302844D0402834D139E0602828D07028C9
:101D100006D0B0F5805F2CD0B0F5005F29D10AE085
:101D2000CB68D1E90121206800F038FF2068816884
:101D300041F0770109E0CB68D1E90121206800F08A
:101D40002DFF2068816841F48041816011E0CA68FC
:101D50004968206800F077FF5021206807E016E00E
:101D6000CA684968206800F07FFF6021206800F0A1
:101D70001FFF84F83D50002084F83C0070BDCA6805
:101D80004968206800F05FFF40212068EFE7226883
:101D900001461046EBE7704770B5044600680169DC
:101DA0004FF00005C943890715D4C168C9438907A5
:101DB00011D4E91E01610120207720688069800725
:101DC000204602D0FFF7E7FF04E000F098F8204635
:101DD00000F096F8257720680169C943490717D4B0
:101DE000C168C943490713D46FF00401016102209F
:101DF00020772068806910F4407F204602D0FFF7EA
:101E0000CAFF04E000F07BF8204600F079F825775F
:101E100020680169C943090716D4C168C943090785
:101E200012D46FF008010161042020772068C06996
:101E30008007204602D0FFF7AEFF04E000F05FF815
:101E4000204600F05DF8257720680169C943C9067E
:101E500017D4C168C943C90613D46FF010010161DA
:101E6000082020772068C06910F4407F204602D007
:101E7000FFF791FF04E000F042F8204600F040F840
:101E8000257720680169C943C90708D1C168C943DA
:101E9000C90704D1891E0161204600F033F820688B
:101EA0000169C943090609D4C168C943090605D4B3
:101EB0006FF0800101612046FFF714FE2068016980
:101EC000C943490609D4C168C943490605D46FF01E
:101ED00040010161204600F04EF820680169C943C5
:101EE00089060BD4C168C943890607D46FF0200165
:101EF00001612046BDE87040FFF7F5BD70BD704739
:101F000070470000054910B5884205D1FEF72CFD49
:101F1000BDE81040FEF735BD10BD0000A401002053
:101F200070B5044690F83C00012812D0012584F8D1
:101F30003C50022084F83D00204600F041FE0100A4
:101F40004FF0000007D084F83D5084F83C00012099
:101F500070BD022070BD2168CA6822F04002CA60CC
:101F60002168CA6822F48042CA6084F83D5084F82F
:101F70003C00002070BD7047704710B504460068F3
:101F8000416994F83D20C1F3C011212A0BD151B110
:101F9000416921F080014161606B08B1FEF72EFEBE
:101FA000204600F018FF2068416994F83E20C1F3F4
:101FB0008011222A0BD151B1416921F040014161C8
:101FC000A06B08B1FEF71AFE204600F0ECFE0020E0
:101FD00010BD7047F8B5026804461068D1685369AF
:101FE00010F00F0F4FF0000553D003F0010601F47D
:101FF000907737435FD0C20705D0CA0503D5226C5E
:1020000042F001022264420705D5DA0703D0226CB0
:1020100042F002022264820705D5DA0703D0226C5F
:1020200042F004022264020707D501F02002324385
:1020300003D0226C42F008022264226C002A34D0C1
:10204000800604D5880602D5204600F0CDFE206823
:102050004069216CC0F38010090700D430B32046DA
:1020600000F0A1FE2068416949061BD5416921F0B5
:1020700040014161A06BA8B159490165A06BFEF711
:1020800004FE002811D0A06B016D01B0BDE8F04046
:10209000084783060FD58B060DD52046BDE8F840CE
:1020A00000F0A2BE2046FFF794FFF8BD2046FFF7E0
:1020B00090FF2564F8BD266B2023012E53D1C60660
:1020C00051D5CE064FD51068506800905069400633
:1020D0002BD5A16B086840680004000CEAD0A68DDF
:1020E0008642E7D9E085C869B0F5807F18D0D0680E
:1020F00020F48070D0602068416921F001014161C5
:102100002068416921F04001416184F83E30256337
:102110002068C16821F01001C160A06BFEF76EFD60
:10212000A08DE18D401A81B219E0A08DE18D401A99
:1021300081B2E08D0028BDD00029BBD0D06820F44A
:102140009070D0602068426922F00102426184F8F8
:102150003E3025632068C26822F01002C26020462B
:10216000FFF70AFFF8BD05062BD50D0629D594F813
:102170003D002128F6D1A068B0F5805F01D120692B
:10218000B0B1206A411C2162216800784860E08C6F
:10219000401E0004000CE084E4D12068C16821F0F6
:1021A0008001C1602068C16841F04001C160F8BD94
:1021B000206A0088C0F308005060206A801C2062FA
:1021C000E5E74006F3D54806F1D5D168204621F071
:1021D0004001D16084F83D3000F0CCF9F8BD00003A
:1021E000A12C000870B5040004D094F83D0000252F
:1021F00010B106E0012070BD84F83C50204600F08C
:1022000023F8242084F83D002068C16821F400519F
:10221000C160204600F040FE2068016921F4904131
:1022200001612068416921F02A0141612068C1688B
:1022300041F40051C1602564202084F83D0084F8F9
:102240003E00002070BD00002DE9F04F87B004462D
:1022500014216846FDF7FEFF654B22686549022799
:102260000826654800254FF003084FF0010B4FF496
:10227000806A9A425AD15F4A1032136843F40023AD
:102280001360126802F4002205920A6842F0040208
:102290000A600968CDF800A001F00401CDE90461ED
:1022A000CDF80C80CDE90175D14669468246FEF72E
:1022B000BBFE30028DE88108CDE9038669465046B1
:1022C000FEF7B2FE4E4E4D4847053060C6E9017537
:1022D000C6E903597561B561F561356230467562CD
:1022E000FEF7B6FD08B1FEF73DFBA663B463444EAE
:1022F000424860363030E6E802074020A6E8210276
:102300003F4846F814596030B561F5613562756231
:10231000FEF79EFD08B1FEF725FB6663002211461D
:102320003420B463FFF7E2F834205CE0354B9A4286
:102330005BD1304A1432136843F0200313601268F3
:1023400002F0200205920A6842F004020A6009685D
:102350004FF0400901F00401CDF80090CDE904618F
:10236000CDF80C80CDE9017569462348FEF75CFE87
:1023700080208DE88108CDE9038669461E48FEF776
:1023800053FE1F4E2048C0364FF020683060C6E92B
:102390000185C6E9035A7561B561F5613562574635
:1023A00030467562FEF754FD08B1FEF7DBFAA6630E
:1023B000B463164E1448C6E903577561B561F561FB
:1023C00035627830756286E801033046FEF740FDDD
:1023D00008B1FEF7C7FA6663002211464720B463CE
:1023E000FFF784F84720FFF773F807B0BDE8F08FD8
:1023F000004C00403038024000080240406002407B
:10240000740200200014014028640240940300205C
:1024100090F83E30202B0ED159B152B190F83C309B
:10242000012B08D0012380F83C300023036300F027
:10243000B9BD012070470220704770477047000007
:102440002DE9F843044690F83D001F4616460D4618
:1024500020284CD1C5B1BEB194F83C00012846D02B
:10246000012084F83C004FF00008C4F8408021208F
:1024700084F83D00FEF7D4FEA6848146E684A06879
:10248000B0F5805F03D004E00120BDE8F883206947
:1024900028B12E465FF0000584F83C800EE000264F
:1024A000FAE78021204600F0B5FDA0B9AEB116F8DC
:1024B000010B21684860E08C401EE084E08C4B46B4
:1024C0004FF0000200970028EBD14FF0400120466A
:1024D00000F0A0FD30B10320D7E735F8020BC0F3C0
:1024E0000800E6E7202084F83D000020CDE7022028
:1024F000CBE7000070B5044690F83D00202830D1AD
:1025000069B362B394F83C0001282AD0012084F812
:102510003C002162A284E28400252564212084F805
:102520003D00636B1048D863636B10481864636B9D
:102530000F48D864606B134605652668606B321DD2
:10254000FEF7F0FC21686FF04000086084F83C5012
:102550002068416941F080014161002070BD012087
:1025600070BD022070BD00006F2D00089D2D000879
:10257000B12C000870477047FEE7000002480221B6
:1025800081700021C1707047F403002070B51848B5
:1025900086B0016841F001010160016801F00101AC
:1025A0000591016841F0010101600068114E00F0E1
:1025B00001000590002201213046FEF72BFE00228B
:1025C00008213046FEF726FE0124022500946946C4
:1025D000304603950194FEF727FD0820CDE900045D
:1025E000694603953046FEF71FFD06B070BD00003A
:1025F00030380240000002401FB50021164800910B
:1026000001910291134A039102604FF48032C0E9B4
:1026100001210161017680F82010104AC0E90A21E9
:102620000124C461C16080F830104461FEF76EFA85
:1026300008B1FEF797F90420CDE9000402200290CA
:1026400069460548FEF7BCF9002801D0FEF78AF973
:102650001FBD000000220140180000200100000FF3
:102660001D4808B5016841F480010160016801F46A
:1026700080010091016841F40011016000680022AE
:1026800000F40010009011460D20FEF72FFF0D20E2
:10269000FEF71EFF002211460F20FEF727FF0F2036
:1026A000FEF716FF002211463820FEF71FFF3820E4
:1026B000FEF70EFF002211463920FEF717FF3920E2
:1026C000FEF706FF002211464520FEF70FFFBDE88A
:1026D00008404520FEF7FCBE3038024070B586B099
:1026E00014216846FDF7B6FD22480024016841F038
:1026F00020010160016801F020010591016841F0AD
:1027000080010160016801F080010591016841F0DC
:1027100004010160016801F004010591016841F0C4
:1027200001010160016801F001010591016841F0BA
:1027300002010160016801F002010591016841F0A8
:102740004001016000680C4E00F0400041F2C405F9
:102750000590002229463046FEF75CFD01200095D9
:10276000CDE90104694630460394FEF75DFC06B0EE
:1027700070BD000030380240000402400D4810B522
:102780000B4901600C49416000214FF48042816097
:10279000C0E9031241618161C1610162FEF746FD3A
:1027A000002803D0BDE81040FEF7DCB810BD0000E3
:1027B00000580040C0000020A086010000B587B08E
:1027C00000211748009101910291039104914FF06B
:1027D0008042059102605122C0E90121114AC0E9FD
:1027E00003218161FFF7C8F908B1FEF7BBF84FF488
:1027F0008050009069460A48FFF762FA08B1FEF778
:10280000B1F8202004908020059004A90448FFF727
:102810006BF9002801D0FEF7A5F807B000BD000055
:10282000140100203F420F0010B588B01421684603
:10283000FDF710FD00241548059413490694C0E9DE
:1028400000144CF25031C0E9024104618461FFF789
:1028500093F908B1FEF786F8072000901020019048
:1028600069460A48FFF75CFB08B1FEF77BF8059460
:1028700005A906480694FFF737F9002801D0FEF7AE
:1028800071F808B010BD0000000400405C01002099
:1028900010B586B000241748009401940294039464
:1028A000049413490594016042F2CF01C0E9011478
:1028B0000921C0E9031480218161FFF75DF908B1A6
:1028C000FEF750F84FF48050009069460948FFF732
:1028D000F7F908B1FEF746F8049404A905480594F1
:1028E000FFF702F9002801D0FEF73CF806B010BD52
:1028F00000080040A40100200C4810B50A490160FE
:102900004FF4E1314160002181600C22C160C0E9D7
:1029100004128161C161FFF765FC002803D0BDE8A6
:102920001040FEF71FB810BD004C0040EC01002025
:102930000C4810B50A4901604FF4E13141600021B3
:1029400081600C22C160C0E904128161C161FFF79E
:1029500049FC002803D0BDE81040FEF703B810BDC5
:102960000014014030020020FEE7FEF7E3FEFEE720
:1029700070B5274D044600782968264E491C296009
:1029800003282DD2DFE800F002172D0001221146A6
:102990003046FEF73FFC002201213046FEF73AFCAC
:1029A00028684FF47A71B0FBF1F201FB12000028A5
:1029B00016D1012013E0012208213046FEF72AFC3F
:1029C000002201213046FEF725FC28684FF4FA6109
:1029D000B0FBF1F201FB1200002801D102202070AF
:1029E00070BD002208213046FEF714FC012211467A
:1029F0003046FEF70FFC286840F6B831B0FBF1F224
:102A000001FB12000028EBD12070286070BD00008F
:102A1000000000200000024070477047FEF7FEBC37
:102A200030B593B030216846FDF714FC14210CA892
:102A3000FDF710FC1E480025016841F0805101603F
:102A4000006800F0805011901A48016841F48041FC
:102A500001600068022400F4804011900120009081
:102A6000000401908001CDE90640082008904FF451
:102A7000A870CDE9090404200B906846FEF768FEB3
:102A800008B172B6FEE70CA90F2081E831004FF4BF
:102A9000A0500F904FF48050109005210CA8FEF725
:102AA00059FD08B172B6FEE7FEF7EEFD13B030BD7A
:102AB00040380240007000400248016841F4700153
:102AC0000160704788ED00E00148FFF765B900003C
:102AD000A4010020F0B50268254C264D264E274F54
:102AE000274B4FF0804CA04209D0604507D0A84248
:102AF00005D0B04203D0B84201D0984204D122F0B0
:102B0000700E4A6842EA0E02A0421BD0604519D0FE
:102B1000A84217D0B04215D0B84213D0984211D075
:102B2000184DA8420ED0184DA8420BD0174DA84200
:102B300008D0174DA84205D0164DA84202D0164D18
:102B4000A84203D122F44075CA682A434D6922F095
:102B500080022A4302608A68C2620A688262A042D6
:102B600001D0984201D10969016301214161F0BDA1
:102B7000000001400004004000080040000C00403C
:102B80000004014000400140004401400048014071
:102B900000180040001C00400020004010B5846870
:102BA00042EA032224F47F440A432243826010BD98
:102BB000826822F070020A4342F007018160704788
:102BC00010B503689A6822F070044A68224322F024
:102BD00007040A6822439A604A6812F00F0F30D146
:102BE0001211082A2DD2DFE802F02C2C2C2C0B21FC
:102BF00027040B69D1E902210068FFF7CFFF20E02D
:102C00000A68052A10D00268136A146A24F00104C5
:102C1000146202689469096924F0F00444EA01111D
:102C20009161006803620CE0012010BD0A698968A7
:102C3000006800F008F804E00A698968006800F09C
:102C400013F8002010BD10B5036A046A24F00104D3
:102C50000462846924F0F00444EA021423F00A02B6
:102C60000A438461026210BD10B5036A23F01003A9
:102C700003628369046A23F4704343EA023224F056
:102C8000A00343EA01118261016210BD10B503483F
:102C9000FFF7A0F9BDE8104000F0C6BEEC0100202F
:102CA00010B5806B0021C185C184FFF792F910BD7A
:102CB00070B5846B2068406994F83D10C0F3C01073
:102CC0000025212904D118B1E584204600F083F8BD
:102CD0002068406994F83E10C0F38010222904D186
:102CE00018B1E585204600F05EF8206C40F0100039
:102CF00020642046FFF76DF970BD10B50146806B6A
:102D000009680968C9051BD40021C1850168CA6822
:102D100022F48072CA6001684A6922F001024A61A5
:102D200001684A6922F040024A61202180F83E1081
:102D3000016B012904D10168CA6822F01002CA603F
:102D4000016B012902D0FFF778FB10BD818DFFF7E1
:102D500013F910BD10B5806B016B012902D0FFF78C
:102D60006DFB10BD818D4908FFF706F910BD10B548
:102D70000146806B09680968C9050CD40021C1842B
:102D800001684A6922F080024A610068C16841F026
:102D90004001C16010BDFFF7EDFB10BD10B5806BA9
:102DA000FFF7E9FB10BD0168CA6822F49072CA609F
:102DB00001684A6922F001024A61016B012904D1CC
:102DC0000168CA6822F01002CA60202180F83E1013
:102DD0000021016370470168CA6822F0C002CA601E
:102DE000202180F83D10704710B5044690F83E0051
:102DF000222801D0022010BDA1684FF480529142D8
:102E000001D1206920B1A06A91421BD049B10AE0EA
:102E10002168A06A4968C1F308010180A06A801C8A
:102E200008E0216971B12168496801F07F010170F2
:102E3000A06A401CA062E08D401E0004000CE085EA
:102E400003D01CE021684968F1E72068C16821F0DF
:102E50002001C1602068C16821F48071C1602068D0
:102E6000416921F001014161202084F83E00206B7E
:102E7000012806D02046FFF7E0FA0020206300205A
:102E800010BD2068C16821F01001C160A18D2046ED
:102E9000FFF772F8F1E7000070B5044600680169B9
:102EA000E26821F44051114301612169A068E2699F
:102EB00008436169114308432168CA6849F20C63F9
:102EC0009A430243CA6020684169A26921F44071B3
:102ED0001143416131492068884202D0304988421B
:102EE00002D1FEF7E7FB01E0FEF7D4FBE269002325
:102EF000192164253226B2F5004F626828D0A0FB64
:102F00000101930F9200FDF75BF90146B0FBF5F06C
:102F10006FF01802504301EB800006EB0010B0FB8D
:102F2000F5F000F0F002B1FBF5F002EB0012B1FB9E
:102F3000F5F06FF01803584301EB800006EB00102A
:102F4000B0FBF5F000F00F0021681044886070BD00
:102F5000A0FB010192185B41FDF732F90146B0FB7D
:102F6000F5F00201B1FBF5F06FF01803584301EBE7
:102F7000800006EBC000B0FBF5F000F0F80002EBBB
:102F80004002B1FBF5F0584301EB800006EBC000B6
:102F9000B0FBF5F000F00700D6E70000001001409C
:102FA0000014014038B5816282850025134604462D
:102FB0000564222084F83E00A26B1348D063A26B04
:102FC00012481064A26B1248D064A06B0A460565D3
:102FD0002168A06B091DFDF7A5FF20680168416805
:102FE000009184F83C50C16841F48071C160206850
:102FF000416941F0010141612068416941F04001AE
:103000004161002038BD0000FB2C0008552D000850
:10301000B12C00082DE9F041984617460E460446AB
:10302000069D1DE0681C1BD02DB1FEF7F9F8A0EB42
:103030000800A84214D92068C16821F4D071C16089
:103040002068416921F001014161202084F83D00A0
:1030500084F83E00002084F83C000320BDE8F081A5
:103060002068006836EA000004D00020B842D9D0B9
:103070000020F3E70120F9E70148FEF7ABBF0000AD
:1030800030020020FEE700000FB4054B10B503A985
:10309000044A029800F0EAF810BC5DF814FB000046
:1030A0007D3A0008140000200907090E002804DBFF
:1030B00000F1E02080F80014704700F00F0000F1EC
:1030C000E02080F8141D704702E008C8121F08C1F4
:1030D000002AFAD170477047002001E001C1121F99
:1030E000002AFBD1704700002DE9FF5F82B000216C
:1030F000DDE90430020DDDF840B0034318D044F69A
:103100001050A2F2FF3242431514119801281FD02B
:10311000A5EB0B00401C5FEA000A4FF000064E4F83
:10312000DFF83891B046504615D5CAF1000413E0D7
:10313000119801244AA3012801D16FEA0B010298DA
:10314000119AC0E90031C0E9024206B0BDE8F09F23
:10315000CBF10000DFE704460021404A491842EB6A
:103160000450CDE9001012E0E00707D032463B469C
:1031700040464946FDF733FA8046894632463B468B
:1031800010461946FDF72BFA06460F466410002C30
:10319000EAD1DDE90401DDE90023BAF1000F06DA26
:1031A000FDF71DFA42464B46FDF719FA05E0FDF71B
:1031B00003F942464B46FDF7FFF804460E4600224F
:1031C000284BFDF797FA03D84FF0FF30014607E090
:1031D0000022254B20463146FDF747F8FDF771FAEE
:1031E000102409E0002C0ADB0A220023FCF7E8FF88
:1031F000039B30321A55641E50EA0102F2D1641C5E
:10320000039AC4F111031444119A012A03D0012234
:1032100008430DD10AE0084304D000204FF0110B01
:10322000119072E7A3EB0B056D1E0DE05B4504DD0D
:103230004FF0000205F1010504E003DA4FF000024F
:10324000A5F10105002AECD002981199C0E90231DC
:10325000C0E9004579E70000000014400000F03F9D
:10326000300000000000F0430000E03F2DE9FF4F78
:1032700095B09B468946064600250FE2252877D162
:1032800000242746F84A0121059400E0044316F87B
:10329000013F203B01FA03F01042F7D130782A2891
:1032A00011D06FF02F033078A0F13002092A16D820
:1032B000059A44F0020402EB820203EB420210443E
:1032C000761C0590EFE759F8042B0592002A03DAE3
:1032D000504244F40054059044F00204761C3078C7
:1032E0002E2816D116F8010F44F004042A280DD018
:1032F0006FF02F023078A0F13003092B09D807EBCB
:10330000870302EB4303C718761CF3E759F8047BE5
:10331000761C30786C280FD006DC4C2817D0682833
:103320000DD06A2814D104E0742810D07A280FD167
:103330000DE044F400140AE044F4801401E044F485
:1033400040147278824202D104F58014761C761CF7
:10335000307866280BD013DC582877D009DC002899
:1033600075D04528F6D04628F4D047281AD19DE1DB
:1033700018E0632835D0642879D0652812D195E10A
:10338000702873D008DC6728F1D069286FD06E28C8
:103390000DD06F2806D1B5E073282CD0752875D0D4
:1033A000782874D05A46179990476D1C75E1C4F37C
:1033B0000250022809D003280DD0D9F800100428A3
:1033C0000DD00D6009F1040967E1D9F80010EA1782
:1033D000C1E90052F6E7D9F800100D80F2E70D7050
:1033E000F0E719F8041B8DF8001000208DF801009B
:1033F000EA46012003E059F804AB4FF0FF306107C3
:103400004FF0000102D40DE008F101018846B942F5
:103410000FDA8045F8DB1AF808100029F4D108E02B
:1034200008F1010188468142FADB1AF808100029E8
:10343000F6D105985B46A0EB080721463846179A57
:1034400000F094FA284400EB080507E04DE029E17C
:103450000DE01AF8010B5A4617999047B8F1010888
:10346000F7D25B4621463846179A13E142E00A221A
:103470000092C4F302524FF0000A022A08D059F811
:1034800004CB032A4FEAEC710AD00DE029E02AE0D0
:1034900009F1070121F00702F2E802C1914609E0B3
:1034A0000FFA8CFC4FEAEC71042A03D14FFA8CFC22
:1034B0004FEAEC71002907DA0A460021DCF1000C22
:1034C00061EB02012D2202E0220504D52B228DF8AA
:1034D0000420012203E0E20701D02022F7E7904612
:1034E00059E00A2102E010220DE010214FF0000AFD
:1034F00000910BE010224FF0000A44F0040408276A
:10350000009203E008224FF0000A0092C4F3025236
:10351000022A05D059F804CB0021032A08D009E07B
:1035200009F1070121F00702F2E802C1914605E026
:103530001FFA8CFC042A01D10CF0FF0C4FF000089C
:10354000220728D5702806D0009B83F0100353EA89
:103550000A0305D00EE040228DF80420012208E085
:103560005CEA010206D030228DF804208DF80500B7
:1035700002229046009B83F0080353EA0A030AD113
:103580005CEA010201D1620705D530228DF80420E2
:103590004FF001087F1E582804D034A003900EA8D5
:1035A00002900DE036A0F9E753466046009AFCF71A
:1035B00007FE84460398825C0298401E02900270C7
:1035C0005CEA0100F0D1029806A9081A00F1200A6D
:1035D000600702D524F4803400E00127574502DD5E
:1035E000A7EB0A0000E0002000EB0A01009005981C
:1035F0004144401A0590E00306D45B462146179AE1
:10360000059800F0B3F90544002706E001A85A46E2
:10361000C05D179990476D1C7F1C4745F6DBE003A2
:103620000CD55B462146179A059800F09FF9054492
:1036300004E030205A46179990476D1C0099481EA7
:1036400000900029F5DC08E0029802995A460078BB
:10365000491C0291179990476D1CBAF10001AAF11B
:10366000010AF1DC65E10000092801003031323344
:1036700034353637383961626364656600000000AE
:103680003031323334353637383941424344454698
:103690000000000000F058F90544761C307800283E
:1036A0007FF4ECAD19B02846BDE8F08F620700D476
:1036B000062709F1070222F0070CFCE80223E14685
:1036C00003F000485FEA080C02D00FF2702C0DE006
:1036D0005FEA045C02D50FF2682C07E05FEAC47C65
:1036E00002D00FF2602C01E0AFF2700C4FF0FF3807
:1036F00023F00043CDF850C065280CD006DC4528E7
:1037000009D046281DD047283DD13DE0662818D075
:1037100067287ED138E00021112F01DB112000E065
:10372000781CCDE9000106A90EA8FFF7DDFCDDE954
:103730000F010E9A03910021009207F1010A0491F2
:103740004DE04FF000400097CDE9011006A90EA80A
:10375000FFF7CAFCDDE90F0203920E9B11990022CC
:10376000DDF80CA00093049211B9791C00EB010A5A
:10377000B7EB0A0004D4C0F1FF3007F1010A04904E
:10378000AAEB0700019044E0012F00DA0127002195
:10379000112F01DD112000E03846CDE9000106A916
:1037A0000EA8FFF7A1FCDDE90F010E9A039100219D
:1037B00004910092BA4621070CD40399514500DACE
:1037C0008A46BAF1010F05DD009AAAF10101515CA8
:1037D000302908D0B84202DA10F1040F06DA0121CC
:1037E000CDE9011015E0AAF10101E9E7002805DCA7
:1037F000049901440491AAEB000102E0411C5145E7
:1038000000DD8A460499401A401C01904FF00040A8
:103810000290200704D40198504501DBCDF80480C4
:1038200000208DF84F0002980DF14F07B0F1004FC6
:1038300025D02B200E9002984FF0020800280CDAB9
:10384000404202902D200E9007E00A210298FCF7DA
:1038500022FE3031029007F8011DB8F10001A8F1F5
:103860000108F2DC02980028EFD1791E0E9808704A
:10387000307800F0200040F0450007F8020D12A853
:10388000C01B00F107081498007800B1012000EB7C
:103890000A01019801EBE07105984144401A401E6D
:1038A0000590E00306D45B462146179A059800F080
:1038B0005DF805441498007818B15A461799904756
:1038C0006D1CE00324D55B462146179A059800F04D
:1038D0004DF805441CE00498002807DBDDE90301EE
:1038E000884203DD0098405C179901E01799302069
:1038F0005A469047049805F10105401C0490019830
:10390000401E019004D12E205A46179990476D1CF5
:10391000BAF10001AAF1010ADDDC05E017F8010B9C
:103920005A46179990476D1CB8F10001A8F101089B
:10393000F4DC5B462146179A0598ABE62D000000A3
:103940002B000000200000002DE9F0410446002576
:103950001E461746880404D405E039462020B047A7
:103960006D1C641EF9D52846BDE8F0812DE9F041B3
:10397000044600251E469046C80301D5302700E0C6
:103980002027880404D505E041463846B0476D1C21
:10399000641EF9D52846BDE8F081000070B50A4CD8
:1039A000054643263146601CFCF754FC324605F5BB
:1039B0008271601CFCF735FC412060704220A070D1
:1039C0004320E07070BD0000F403002070B5054690
:1039D0000A484288432A0ED2032A00DC03221446F6
:1039E0000749281DFCF71DFC2246291DBDE8704033
:1039F0000448FEF77FBD4322F1E700004835002070
:103A0000F5030020EC01002005480068C16841F082
:103A10001001C160FF2203490148FEF7F9BC000014
:103A2000EC0100204C360020104808B50068016801
:103A3000C943C90619D40168406800900B48FEF7D5
:103A40009CFA0B48006840680A49C0F580704880BD
:103A50000846FFF7A3FF0748FFF7B8FFBDE8084097
:103A6000FF2205490148FEF7D3BC08BDEC01002048
:103A700074020020483500204C36002013B54FF664
:103A8000FF73012269460248FEF7DAFC00981CBD6C
:103A9000EC010020FDF7CAFCFEF7C2FFFEF71EFE98
:103AA000FEF7DEFDFEF728FFFEF7A6FDFEF740FF5E
:103AB000FEF784FEFEF7B8FEFEF7EAFEFEF75EFEB6
:103AC000FEF764FD0448FEF7BBF8FFF79DFFFCF727
:103AD0004BFFFCF74DFFFEE7A40100200006101687
:103AE00000061016000000000000000001020304A0
:103AF0000607080900000000010203041C3B00083F
:103B00000000002018000000C8300008343B000806
:103B10001800002038470000D830000800000000DE
:103B20000100000010000000000000000024F4006C
:043B30000000000091
:040000050800018965
:00000001FF
